:100000000C9454010C9471010C9471010C947101C5
:100010000C9471010C9471010C9471010C94710198
:100020000C9471010C9471010C9471010C94710188
:100030000C9471010C9471010C9471010C94710178
:100040000C9488020C9471010C9471010C94710150
:100050000C9471010C9471010C9471010C94710158
:100060000C9471010C947101000000080002010061
:10007000000304070000000000000000007CFE9266
:100080008AFE7C00008088FEFE80800000C4E6A21C
:10009000929E8C000044C69292FE6C000030282490
:1000A000FEFE2000004ECE8A8AFA7200007CFE928C
:1000B00092F66400000606E2FA1E0600006CFE924C
:1000C00092FE6C00004CDE9292FE7C000040E8A89C
:1000D000A8F8F00000FEFE9090F060000070F88834
:1000E00088D850000060F09090FEFE000070F8A8E4
:1000F000A8B830000020FCFE222604000018BCA492
:10010000A4FC7C0000FEFE1010F0E000000080F473
:10011000F48000000060E080FA7A000000FEFE201B
:1001200070D88800000000FEFE00000000F8F830E3
:10013000E030F8F800F8F81818F8F0000070F888C7
:1001400088F8700000FCFC24243C180000183C24B3
:10015000FCFC80C000F8F808083830000090A8A81F
:10016000A8A84800001010FCFC1010000078F880CF
:1001700080F8F800003070C0C07030000078F8805F
:10018000F080F8780088D87070D888000018B8A07F
:10019000A0F878000000C8E8B898000000FCFE1243
:1001A00012FEFC0000FEFE9292FE6C00007CFE82BD
:1001B00082C6440000FEFE8282FE7C0000FEFE92AB
:1001C0009292820000FEFE1212120200007CFE8259
:1001D000A2E6640000FEFE1010FEFE00000082FE9B
:1001E000FE8200000060E082FE7E020000FEFE381B
:1001F0006CC6820000FEFE808080800000FEFE0C47
:10020000180CFEFE00FEFE0C1830FEFE007CFE8286
:1002100082FE7C0000FEFE22223E1C00003C7E424C
:1002200062FEBC0000FEFE3272DE8C00004CDE92EC
:1002300092F66400000602FEFE020600007EFE80CA
:1002400080FEFE00003E7EC0C07E3E0000FEFE60DE
:100250003060FEFE00C6EE381038EEC6000E1EF00E
:10026000F01E0E0000C2E2B29A8E8600000000006E
:10027000250028002B0000000000240027002A0091
:10028000040404040404040402020202020203033C
:100290000303030301020408102040800102040844
:1002A000102001020408102011241FBECFEFD8E057
:1002B000DEBFCDBF11E0A0E0B1E0E8E4FAE002C0AB
:1002C00005900D92AE30B107D9F721E0AEE0B1E074
:1002D00001C01D92A037B207E1F70E94D2020C9430
:1002E00022050C94000090E0FC01EC56FD4F249197
:1002F00080589D4FFC018491882399F090E0880FED
:10030000991FFC01EA58FD4FA591B491FC01E459F5
:10031000FD4F859194918FB7F894EC91E22BEC937B
:100320008FBF089590E0FC01E859FF4F2491FC0134
:10033000EC56FD4F3491FC01E058FD4FE491EE2363
:10034000C9F0222339F0233001F1A8F4213019F14A
:10035000223029F1F0E0EE0FFF1FE459FD4FA59187
:10036000B4918FB7F894EC91611126C030953E237B
:100370003C938FBF08952730A9F02830C9F024306E
:1003800049F7809180008F7D03C0809180008F7736
:1003900080938000DFCF84B58F7784BDDBCF84B5B9
:1003A0008F7DFBCF8091B0008F778093B000D2CF4C
:1003B0008091B0008F7DF9CF3E2BDACF3FB7F89414
:1003C0008091130190911401A0911501B091160133
:1003D00026B5A89B05C02F3F19F00196A11DB11DA0
:1003E0003FBFBA2FA92F982F8827BC01CD01620FDC
:1003F000711D811D911D42E0660F771F881F991F97
:100400004A95D1F70895CF92DF92EF92FF920F9322
:100410001F93CF93DF9300D0CDB7DEB769834A83B4
:10042000880F991F00916D0110916E01000F111F2F
:10043000E7E1F1E09F01275131402017310714F423
:100440001192F8CF2981FC01E95EFE4F21838A8158
:10045000808360E080916B010E949201101611066A
:1004600004F501501109F801E95EFE4FE080D090DB
:100470006901C090670188E0F82E6E2D661F66271F
:10048000661F8C2D0E949201EE0C61E08D2D0E9462
:10049000920160E08D2D0E949201FA94F110EDCF4F
:1004A000DDCF61E080916B010F900F90DF91CF91D4
:1004B0001F910F91FF90EF90DF90CF900C949201DD
:1004C000EF92FF921F93CF93DF9320916D013091B4
:1004D0006E0182179307B4F4EC0123E0880F991F93
:1004E0002A95E1F79C01295D3E4F790111E0F70162
:1004F00011927F0140E0612FCE010E9403021F5F35
:100500001930A9F7DF91CF911F91FF90EF900895D7
:100510001F920F920FB60F9211242F933F938F9338
:100520009F93AF93BF9380910F0190911001A09181
:100530001101B091120130910E0123E0230F2D37EC
:1005400058F50196A11DB11D20930E0180930F0156
:1005500090931001A0931101B093120180911301A7
:1005600090911401A0911501B09116010196A11D61
:10057000B11D8093130190931401A0931501B093C2
:100580001601BF91AF919F918F913F912F910F9045
:100590000FBE0F901F90189526E8230F0296A11DFD
:1005A000B11DD2CFCF93DF93CDB7DEB72E970FB665
:1005B000F894DEBF0FBECDBF789484B5826084BD51
:1005C00084B5816084BD85B5826085BD85B5816057
:1005D00085BD80916E00816080936E0010928100D5
:1005E0008091810082608093810080918100816090
:1005F0008093810080918000816080938000809151
:10060000B10084608093B1008091B00081608093DC
:10061000B00080917A00846080937A0080917A00A3
:10062000826080937A0080917A00816080937A0062
:1006300080917A00806880937A001092C1000CE06B
:1006400010E010936801009367018BE090E09093B5
:100650006A01809369018AE090E090936C01809335
:100660006B0110926F0181E090E090936E01809396
:100670006D018CE00E947301809169010E947301F9
:1006800080916B010E94730161E080916B010E9477
:1006900092011093680100936701E7E2F1E087E6B9
:1006A00091E011928E179F07E1F710E000E0809132
:1006B0006D0190916E010817190744F540E06FE055
:1006C000C8010E94030280916D0190916E0108178C
:1006D00019072CF447E06BE0C8010E94030240E0D8
:1006E00069E0C8010E940302C8010E946002809173
:1006F0006D0190916E01081719072CF440E06CE031
:10070000C8010E9403020F5F1F4FD1CF10E000E02D
:1007100080916D0190916E01081719070CF081C14D
:1007200041E06CE0C8010E94030280916D0190914C
:100730006E01081719072CF448E06AE0C8010E940E
:100740000302C8010E9460020F5F1F4FE1CF63E008
:10075000000F111F6A95E1F7013E3FEF13070CF4FC
:100760005AC148E051E05A8749875801C80180962C
:100770009E878D87E985FA858191FA87E98798E0D8
:10078000E0E0F1E0DE01119601900D929A95E1F71B
:100790009FEB980F9A3138F5F8E08F02C0011124D1
:1007A000DE01119630E020E08C569040FC01E20F13
:1007B000F31FE491ED932F5F3F4F28303105B1F7E0
:1007C00080916F018111A4C0F12CE12CB7016A0D59
:1007D0007B1D90E080E0683071050CF442C001960A
:1007E00068507109F8CF9FE9980F9A31A8F428E072
:1007F0008202C0011124DE01119630E020E08C530A
:100800009240FC01E20FF31FE491ED932F5F3F4F05
:1008100028303105B1F7D4CF90ED980F9A30A8F475
:1008200038E08302C0011124DE01119630E020E09F
:1008300084509140FC01E20FF31FE491ED932F5F90
:100840003F4F28303105B1F7BBCF803209F0B8CF28
:1008500019821A821B821C821D821E821F821886A8
:10086000AFCF20916D0130916E018217930704F58F
:1008700068307105A8F4E1E0F0E0EC0FFD1FEE0D2B
:10088000FF1D4081FC0153E0EE0FFF1F5A95E1F779
:10089000E95EFE4FE60FF71F408B6F5F0E94030279
:1008A0004FEFE41AF40A58E0E516F10409F08ECF90
:1008B000E8E0AE0EB11C2D853E852A153B0509F0FA
:1008C00059CF0E94DE014B015C0188ECC82ED12C6F
:1008D000E12CF12C0E94DE01681979098A099B0933
:1008E000683E734081059105A8F331E0C31AD10831
:1008F000E108F10848EE840E43E0941EA11CB11CEF
:10090000C114D104E104F10429F70150110924CFE5
:1009100080916D0190916E01019723E0880F991FDE
:100920002A95E1F7FC01EA19FB09FC87EB8738E01F
:10093000832E912C20916D0130916E017901F1E0AF
:10094000EF1AF1088B859C858819990997FF05C0D6
:1009500041E0E41AF1080896F9CF5FEFE516F506D5
:100960000CF4A6CFEFEFEE16FE0609F44CC0E2162B
:10097000F3060CF048C0883091050CF044C0F40137
:10098000319721E030E02C0F3D1FE20FF31F608014
:10099000270193E0440C551C9A95E1F740E850E09C
:1009A00002C0559547958A95E2F7242E342E30944F
:1009B000D12CC12C712C80916D0190916E01E816A3
:1009C000F906D4F4F601E40DF51DE95EFE4F8089C9
:1009D00027E030E02C193D09A30102C05595479549
:1009E0002A95E2F740FF15C08229808B408961E09B
:1009F0006C0DC7010E9403025FEFC51AD50A88E09B
:100A0000C816D104C1F691E0891A910809F092CF75
:100A10004FCF8321EACF80E090E0892B11F00E9434
:100A20000000F12CE12C00916D0110916E01E01697
:100A3000F1060CF08CCEC7010E9460022FEFE21A83
:080A4000F20AF1CFF894FFCF98
:0E0A480000082A1C771C2A084953504300005E
:00000001FF
